:1000000040C059C0D9C157C08DC155C054C053C09C
:1000100052C051C050C04FC04EC04DC04CC04BC06C
:100020004AC049C048C0DCC0E8C0F4C000C1FFC03D
:10003000FEC0FDC0FCC0FBC0FAC0F9C0F8C0F7C0EC
:10004000F6C0B7C0A0C0AAC0F2C0F1C0F0C0EFC0F7
:10005000EEC0EDC0ECC0EBC0EAC0E9C0E8C0E7C04C
:10006000E6C0E5C079C086C0E2C0E1C0E0C0DFC044
:10007000DEC0DDC0DCC0DBC0DAC0D9C0D8C0D7C0AC
:1000800062C011241FBECFE5D4E0DEBFCDBF10E0BB
:10009000A0E6B0E0E6E9FDE002C005900D92A63EC4
:1000A000B107D9F710E0A6EEB0E001C01D92A63F5F
:1000B000B107E1F70FC0A4CF8091EE00882341F093
:1000C00060E0862FC1D260E0862FB6D2C09A929AA5
:1000D00008950895CFEDD3E0DEBFCDBF1ED28CE5ED
:1000E00090E09093E7008093E60071E0C72EDD2456
:1000F000AD2CBD2C882499246CE080E690E099D149
:1001000060E2862FA1D28091ED00882309F4B3D15B
:10011000F7D27C01009709F4B1C08815990509F45C
:10012000ADC04C01C701AA27BB278F739071A07087
:10013000B070FC01E150F041EE32F10508F077C0FB
:10014000ED5EFF4F099460E0862F7ED260E0862F3F
:1001500073D20DE610E06DC060E2862F75D268E7BD
:10016000862F6AD28091ED00882309F484D102E7BA
:1001700010E05FC060E1862F67D268E7862F5CD20F
:1001800006E710E056C064E686E956D28091ED009D
:10019000882309F470D10AE710E04BC066E984E6D1
:1001A0004BD28091ED00882309F465D100E810E07E
:1001B00040C08C2D992701969C018C7F9170C22E96
:1001C000C81A8C2D992780FF02C0C09A01C0C09820
:1001D00081FF02C0929A01C0929805E810E029C000
:1001E00080E0AA2009F481E0A82E882311F0969AD5
:1001F00001C0969800E910E01CC080E0DD2009F401
:1002000081E0D82E882311F0A99A01C0A9980AE9A3
:1002100010E00FC080E0BB2009F481E0B82E8823F5
:1002200011F0A89A01C0A89808EA10E002C007EBF4
:1002300010E084EF91E0F1D01F930F93C7018F730B
:1002400090719F938F93FF92EF928CEB90E09F932E
:100250008F9380E890E09F938F938E010F5F1F4FE5
:100260001F930F9356D2682FC801E3D08DB79EB766
:100270000C960FB6F8949EBF0FBE8DBF8091EE0016
:10028000882309F445CF06D1282F3327C90181706F
:1002900090709F938F93C901969587958170907008
:1002A0009F938F93C90196958795969587958170B1
:1002B00090709F938F93C90143E0969587954A95D7
:1002C000E1F7817090709F938F9394E03695279516
:1002D0009A95E1F7C901817090709F938F9336953D
:1002E0002795217030703F932F9382ED90E09F937C
:1002F0008F9380E890E09F938F938E010F5F1F4F45
:100300001F930F9306D2682FC80193D088EE93E015
:1003100084D08DB79EB742960FB6F8949EBF0FBE9D
:100320008DBFF6CE1F920F920FB60F9211242F930E
:100330003F934F935F936F937F938F939F93AF936D
:10034000BF93EF93FF9384B58B5D84BD8091E800EC
:100350008F5F8093E8008091E800882399F4809172
:10036000E9009091EA00A091EB00B091EC000196B9
:10037000A11DB11D8093E9009093EA00A093EB00CA
:10038000B093EC008091E400882329F08091E8008C
:10039000877009F463D1FF91EF91BF91AF919F9165
:1003A0008F917F916F915F914F913F912F910F901E
:1003B0000FBE0F901F9018951F920F920FB60F92BD
:1003C00011242F933F934F935F936F937F938F935A
:1003D0009F93AF93BF93EF93FF9381E08093EE00E1
:1003E00055D08091E6009091E700892B29F0E091AB
:1003F000E600F091E7000995FF91EF91BF91AF9171
:100400009F918F917F916F915F914F913F912F912C
:100410000F900FBE0F901F9018959C019091E800CF
:100420009C5D8091E8009817E1F721503040B1F7CA
:100430000895AC0120E09091E4002093E40088E06E
:100440008AB9662359F05D9B07C0FA01E20FF11DDE
:1004500080818CB92F5F61506623A9F75E9BFECF28
:1004600020E060E06E5F6E3FE8F32F5F2E3FC8F341
:100470009093E40008951092EE0093988B9885B7BE
:10048000837F85BF8BB780688BBF08958BB78F77CD
:100490008BBF08958B9A939A84E487B99091E80072
:1004A000965F8091E8009817E1F7369A349BFECF6B
:1004B000349A24B185B19927982F8827820F911DEE
:1004C00093989C014427552760E070E089E09DE304
:1004D00009D4DA01C90166E0880F991FAA1FBB1F62
:1004E0006A95D1F7821B930BA40BB50B805A9C4ADB
:1004F000A94BB340BC01CD0120E432E44FE050E011
:10050000F1D3DA01C901992708959091E800980F75
:100510008091E8009817E1F7089589E785BD81E9A2
:1005200083BD89B7806489BF1BB81AB896E890BDAF
:100530008FEC89B98FE387BB84EF81BB81EA8FBDE4
:1005400082E08EBD96B984B3836084BBA99AA89AD1
:10055000A998A89897989698C098929890E282B394
:100560008F7C892B82BB88B38F7C892B88BB80E0F2
:1005700090E09BBD8ABD99BD88BDC09A78940895CE
:100580008091E9009091EA00A091EB00B091EC001D
:10059000BA2FA92F982F88272091E800820F911D4C
:1005A000A11DB11DBC01CD0108958091E90090917C
:1005B000EA00A091EB00B091EC00BC01CD0124E277
:1005C00030E040E050E08ED3542F432F322F2227CB
:1005D0008091E80064E27AD3280F311D411D511D3E
:1005E000CA01B9010895992780FF02C0C09A01C0CD
:1005F000C09881FF02C0929A089592980895089534
:10060000882311F0969A0895969808950895982F42
:10061000882311F4662321F0979884B3836084BB08
:10062000992311F0A99A01C0A998662311F0A89AFC
:100630000895A8980895089599279BBD8ABD862F8F
:10064000992799BD88BD0895982F82B38F7C892BF7
:1006500082BB88B38F7C862B88BB089551E080993C
:1006600050E08091F2008F3F19F08F5F8093F2008D
:100670008091F100851779F14091F500442371F4E0
:10068000552339F08091F200893C18F081E090E028
:1006900015C01092F4001092F3001AC08091F2007D
:1006A000863058F18B3090F48091F3009091F400F3
:1006B000880F991F252F3327822B932B9093F400BB
:1006C0008093F3004F5F4093F50002C01092F50055
:1006D0001092F20012C08091F2008B3070F0809185
:1006E000F5008E3041F48091F3009091F4009093E6
:1006F000F0008093EF001092F5005093F100089500
:100700008091EF009091F0001092F0001092EF00B5
:100710000895ACE0B0E0EEE8F3E014C30B891C8967
:100720002D893E896F89788D86E08C8309831A83B1
:1007300037FF05C08FEF9FE78D839E8304C0215054
:1007400030402D833E83AE01475E5F4FCE01019660
:100750000DD02D813E81821793070CF49C01020F6E
:10076000131FF8011082E4E02C9608C3A2E1B0E068
:10077000EBEBF3E0D9C2AA24BB2465014C016D87E1
:100780007E874F87588B44245524FC01468257822C
:10079000838181FD54C28FEF9FEF68C240FE3EC24D
:1007A000862D80538A30E0F4F0E36F1641F42A89F5
:1007B000222329F4772019F480E091E08BC08AE0AD
:1007C0009A89989F902D1124892F860D80538A8BAA
:1007D000882314F4EFE7EA8B43FC31C27A882FC2F6
:1007E00043FE05C0FA89FF2311F421E02A8B862DF0
:1007F000992787FD90958836910554F585369105A2
:100800000CF06BC08835910509F4DBC08935910582
:10081000B4F48B32910509F442C08C32910544F452
:100820008032910509F43FC0839709F442C0EDC1BD
:100830008D329105D9F18E9709F440C0E6C1833617
:10084000910509F454C08436910509F480C0DDC1D6
:100850008037910509F4ADC08137910584F48C3659
:100860009105B1F18D3691052CF48936910509F485
:100870006EC0CBC18F36910509F498C0C6C18537CB
:10088000910509F4A0C08637910524F483379105BA
:10089000B9F1BBC18837910509F493C0B6C180E1B5
:1008A00090E0482A592AE0E2F0E005C080E890E0B4
:1008B00011C0E0E4F0E04E2A5F2AC1C188E090E078
:1008C000482A592AEFEFFEEF4E225F221A8AB7C15B
:1008D00084E090E0482A592AB2C10F2EFFE3AF2EE0
:1008E000F02D7A940F2EF3E66F2EF02D3AC1EF859E
:1008F000F889CF0102968F87988BA0807A9431C1B6
:10090000EF85F889CF0102968F87988BA080B18000
:10091000198AF5018081882349F099899F5F998B15
:10092000F501E90FF11D80818823B9F743FE0CC062
:100930004A89242F332727FD3095E9898E2F99275F
:10094000281739070CF4498BF9897F1A0AC142FE2E
:100950000BC0EF85F889CF0104968F87988B208193
:100960003181428153810DC0EF85F889CF01029614
:100970008F87988B808191819C01442737FD40951A
:10098000542F59016A01552364F4E2E0F0E04E2A45
:100990005F2AD094C094B094A094A11CB11CC11C37
:1009A000D11C8FEB9FEF482259222BC098E0998BE6
:1009B0000AC0E0E4F0E04E2A5F2A0F2EF8E76F2E1F
:1009C000F02DF0E1F98B42FE0BC0EF85F889CF01E5
:1009D00004968F87988B20813181428153810BC08F
:1009E000EF85F889CF0102968F87988B808191815E
:1009F0009C014427552759016A01EFECFFEF4E2275
:100A00005F221E010894211C311CF989EF2EFF245E
:100A100000271127C601B501A801970163D1DC01A8
:100A2000CB01F10180838A301CF0860D815203C016
:100A3000F1018081805DF10181931F01C601B50143
:100A4000A80197014FD159016A01211531054105CE
:100A5000510501F7CE010196A22CA81AC20182739A
:100A60009070892B09F07A9446FE0FC0872D992744
:100A700087FD9095F989F03131F40F2EFEEF7F2E2E
:100A8000F02D780E02C0782E7A9443FE12C04A8967
:100A9000242F332727FD30958A2D99278217930716
:100AA0002CF087EF9FEF4822592203C09A899A19A8
:100AB0009A8B43FE03C0EA897E1A01C07A18C201EC
:100AC00080789170892B61F4872D7A94181644F4FC
:100AD000B40180E290E0CDD0872D7A941816C4F34B
:100AE00041FE04C0B4018DE290E00BC044FE04C09E
:100AF000B4018BE290E005C045FE04C0B40180E281
:100B000090E0B7D046FE0DC0B40180E390E0B1D0D4
:100B1000F989F03131F4862D992787FD9095B4013C
:100B2000A8D050FE0CC0872D7A94181644F4B40156
:100B300080E390E09ED0872D7A941816C4F343FE8C
:100B400010C08A89282F21502A8B181654F4B4011A
:100B500080E390E08ED08A89482F41504A8B181646
:100B6000B4F3842D807861F4872D7A94181644F4B8
:100B7000B40180E290E07DD0872D7A941816C4F3FA
:100B800083E6681639F48A2D992787FD9095B4017C
:100B900070D02BC093E76916A9F4E989E150E98B7D
:100BA000EF3F19F1F5018081992787FD9095089411
:100BB000A11CB11CB4015DD0F989F150F98BFF3F44
:100BC00089F713C0CE0101962816390671F08E01FF
:100BD0000F5F1F4FF10182911F01992787FD9095AB
:100BE000B40147D020163106A9F7842D807899F0FA
:100BF000872D7A9418167CF4B40180E290E039D005
:100C0000872D7A941816C4F306C0862D992787FD80
:100C10009095B4012ED04424552411C0F5E26F16EE
:100C200041F44424552443941A8A7A882AE0298B73
:100C300006C0862D992787FD9095B4011AD0F4013E
:100C4000838183FF08C0ED85FE85CF0101968D87E6
:100C50009E87649005C0ED85FE856190ED87FE87D7
:100C6000662009F09BCDF40186819781E2E16296CE
:100C700077C00F931F93CF93DF938C01EB018B8190
:100C8000992781FF1CC082FF0DC02E813F818C817E
:100C90009D812817390764F4E881F9810193E8837D
:100CA000F98306C0E885F985802F0995892B39F4E9
:100CB0008E819F8101968E839F83C80102C08FEF32
:100CC0009FEFDF91CF911F910F910895991B79E0CC
:100CD00004C0991F961708F0961B881F7A95C9F7CC
:100CE00080950895A1E21A2EAA1BBB1BFD010DC021
:100CF000AA1FBB1FEE1FFF1FA217B307E407F507CC
:100D000020F0A21BB30BE40BF50B661F771F881FA7
:100D1000991F1A9469F760957095809590959B013D
:100D2000AC01BD01CF0108952F923F924F925F9287
:100D30006F927F928F929F92AF92BF92CF92DF92EB
:100D4000EF92FF920F931F93CF93DF93CDB7DEB750
:100D5000CA1BDB0B0FB6F894DEBF0FBECDBF0994E4
:100D60002A88398848885F846E847D848C849B843B
:100D7000AA84B984C884DF80EE80FD800C811B8149
:100D8000AA81B981CE0FD11D0FB6F894DEBF0FBE78
:060D9000CDBFED01089546
:100D9600417375726F20686572652E0D0053544F4E
:100DA60050004657440052574400524947485400A1
:100DB6004C45465400535441545553204C45440029
:100DC60046524F4E54204C4544004C454654204212
:100DD60041434B204C454400524947485420424128
:100DE600434B204C4544006E6F6E65005243353AC6
:100DF6002025303478202825303478293A20257368
:100E06000D0053573A20256425642564256425641E
:060E160025640D0001003F
:00000001FF
